:03000000020003F8
:0C000300787FE4F6D8FD75812002004AE9
:02015E00C100DE
:100125008F0B8E0A8D098C08780874FF120107EC75
:060135004D4E4F70F32255
:10008F0012013B200004D2008005300002C200A202
:10009F0000920112014E20A407200004C280804963
:1000AF0020A407300004C284803F20A5072000044D
:1000BF00C281803520A507300004C285802B20A681
:1000CF0007200004C282802120A607300004C286C8
:1000DF00801720A707200004C283800D20A70730B8
:1000EF000004C28780037580FF7F327E007D007C15
:0600FF0000120125808DB6
:10013B00C290D291D292D293C294D2A4D2A5D2A67B
:03014B00D2A72216
:10014E00200105C2A3D2A222300104D2A3C2A22250
:10000F0002008FE493A3F8E493A34003F68001F278
:10001F0008DFF48029E493A3F85407240CC8C333F2
:10002F00C4540F4420C8834004F456800146F6DFC1
:10003F00E4800B010204081020408090015EE47EF2
:10004F00019360BCA3FF543F30E509541FFEE493B6
:10005F00A360010ECF54C025E060A840B8E493A37D
:10006F00FAE493A3F8E493A3C8C582C8CAC583CAA8
:10007F00F0A3C8C582C8CAC583CADFE9DEE780BE60
:01016000009E
:100105007401FF3395E0FEFDFC080808E6CF2FF6E5
:1001150018E6CE3EF618E6CD3DF618E6CC3CF622BE
:00000001FF
