:0300000002000EED
:0C000E00787FE4F6D8FD758120020055D3
:10010A00080907030B090D0C0E06C181C10001087D
:01011A0000E4
:10011C00758901758ACD758CF8D2AFD2A9D28C2293
:1000EE0012011C12000320A306C200C20180F720D9
:0C00FE00A106C200D20180EED20080EA10
:07000300C2A7D2A3D2A12283
:03000B0002009A56
:0B009A00C0E0C0D075D000C000C0075F
:1000A500758ACD758CF8AF905307F074092508F85B
:1000B500E642073000057590FF80028F90300104FD
:1000C500050880021508C3E5086480948840057515
:1000D5000800800CD3E508648094805003750807F8
:0900E500D007D000D0D0D0E032E9
:10001A000200EEE493A3F8E493A34003F68001F20E
:10002A0008DFF48029E493A3F85407240CC8C333E7
:10003A00C4540F4420C8834004F456800146F6DFB6
:10004A00E4800B010204081020408090010AE47E3B
:10005A00019360BCA3FF543F30E509541FFEE493AB
:10006A00A360010ECF54C025E060A840B8E493A372
:10007A00FAE493A3F8E493A3C8C582C8CAC583CA9D
:10008A00F0A3C8C582C8CAC583CADFE9DEE780BE55
:01011B0000E3
:00000001FF
