:030000000201AA50
:0C01AA00787FE4F6D8FD7581200201F199
:0B026000C100040A000000C8010E02EB
:1002360012026C120277120111D28D308DFDC28D21
:0902460012024FB200B28080F2F6
:0B026C00C290D291D292D293C2942291
:06027700758901D28C2202
:10011100AF0E7E007C237DA61200E4AB0DAA0CA9D4
:100121000BA80A12003FC3E49FFFE49EFE74019DE9
:10013100FDE49CFC78081200D18F0FAF0E7E007C8D
:10014100237DA61200E4AB0DAA0CA90BA80A12008C
:100151003FEFF404F510C37464950EFFE49400FEC0
:100161007C237DA61200E4AB0DAA0CA90BA80A12F0
:10017100003FC3E49FFFE49EFE74019DFDE49CFCEF
:1001810078081200D18F08C37464950EFFE49400BF
:10019100FE7C237DA61200E4AB0DAA0CA90BA80AD4
:0901A10012003FEFF404F50922FD
:10024F0030000785088C85098A22850F8C85108AD6
:01025F00227C
:1001B600020236E493A3F8E493A34003F68001F227
:1001C60008DFF48029E493A3F85407240CC8C3334A
:1001D600C4540F4420C8834004F456800146F6DF19
:1001E600E4800B0102040810204080900260E47E47
:1001F600019360BCA3FF543F30E509541FFEE4930E
:10020600A360010ECF54C025E060A840B8E493A3D4
:10021600FAE493A3F8E493A3C8C582C8CAC583CAFF
:10022600F0A3C8C582C8CAC583CADFE9DEE780BEB7
:01026B000092
:1000030075F008758200EF2FFFEE33FECD33CDCCB4
:1000130033CCC58233C5829BED9AEC99E582984037
:100023000CF582EE9BFEED9AFDEC99FC0FD5F0D614
:10003300E4CEFBE4CDFAE4CCF9A88222B800C1B93E
:100043000059BA002DEC8BF084CFCECDFCE5F0CB7C
:10005300F97818EF2FFFEE33FEED33FDEC33FCEBB5
:1000630033FB10D703994004EB99FB0FD8E5E4F970
:10007300FA227818EF2FFFEE33FEED33FDEC33FC5D
:10008300C933C910D7059BE99A4007EC9BFCE99A51
:10009300F90FD8E0E4C9FAE4CCFB2275F010EF2F96
:1000A300FFEE33FEED33FDCC33CCC833C810D70796
:1000B3009BEC9AE899400AED9BFDEC9AFCE899F8D1
:0E00C3000FD5F0DAE4CDFBE4CCFAE4C8F92264
:1000D100E8600FECC313FCED13FDEE13FEEF13FF0D
:0300E100D8F12231
:1000E400EC8EF0A4CCC5F0CCCDF8EFA4CEC5F02DA9
:1000F400FDE43CFCE8A42EC8C5F03DFDE43CFCEF67
:0D010400A4FFE5F028FEE43DFDE43CFC22F4
:00000001FF
