:0300000002000EED
:0C000E00787FE4F6D8FD758115020055DE
:10011E000C0900C000F900A400B00099009201156E
:04012E0000010800C4
:05000300D293C294221B
:10009A007580FFEF14601A14602114602814602F11
:1000AA001460362405703BC292C291C290850A80C0
:1000BA0022C292C291D290850C8022C292D291C25F
:1000CA0090850E8022C292D291D29085108022D23F
:1000DA0092C291C29085128022D292C291D2908508
:0300EA001480225D
:10013300758902758CD2758AD2D2AFD2A9D28C229C
:0A014300120003120133D28D80FE7A
:03000B000200ED03
:1000ED00C0E0C0D075D000C007E515C3941340180B
:1000FD00AF0812009AE508C3940640057508008004
:10010D0002050875150080020515D007D0D0D0E086
:01011D0032AF
:10001A00020143E493A3F8E493A34003F68001F2B8
:10002A0008DFF48029E493A3F85407240CC8C333E7
:10003A00C4540F4420C8834004F456800146F6DFB6
:10004A00E4800B010204081020408090011EE47E27
:10005A00019360BCA3FF543F30E509541FFEE493AB
:10006A00A360010ECF54C025E060A840B8E493A372
:10007A00FAE493A3F8E493A3C8C582C8CAC583CA9D
:10008A00F0A3C8C582C8CAC583CADFE9DEE780BE55
:0101320000CC
:00000001FF
