:03000000020135C5
:0C013500787FE4F6D8FD75812C02017C77
:1002BF00101C30313233343536373839616263646C
:0202CF00656662
:0302D5001202F71B
:0E02D800C290D291D295AF80C295EF20E7F68A
:0102E60022F5
:0B02F700C290C2918F80D295C2952268
:0B030200D290C2918F80D295C295224C
:100003001202D87F381202D57F0C1202D57F061256
:0A00130002F71202D87F010202F783
:08030D001202D87F010202F781
:06026F008B198A1A891B9D
:10027500E4FEAB19AA1AA91B12011C60251202D8AB
:10028500EE4480FF1202F71202D8AB19051BE51BDD
:10029500AA1A7002051A14F912011CFF1203020EA4
:0202A50080D007
:0102A7002234
:1002E7000000000000000000000000000000000007
:0302D100012C00FD
:1002220078087C007D007BFF7A0279E77E007F10F0
:100232001200F6E4F51812001D1202A8120003E4DF
:10024200F518741C2518F8E6FF74082518F8E66FEF
:10025200601074082518F8A6077B007A00791C1232
:0D026200026F0518E518C3941040D780D234
:030023000201C116
:1001C100C0E0C0F0C083C082C0D075D000C000C004
:0D01D10001C002C003C004C005C006C00785
:1001DE00309902C299309821C298E5996420601333
:1001EE00741C252CF8E66006A699052C800B752C40
:0901FE00008006752C0012030DAF
:10020700D007D006D005D004D003D002D001D0004B
:0B021700D0D0D082D083D0F0D0E032F5
:01031500FEE9
:06001D00759850D2AC22E0
:1002A80053890F438920D2AFC28A900315E493FF84
:0702B800F58D8F8BD28E2221
:10014100020222E493A3F8E493A34003F68001F2B0
:1001510008DFF48029E493A3F85407240CC8C333BF
:10016100C4540F4420C8834004F456800146F6DF8E
:10017100E4800B01020408102040809002BFE47E5D
:10018100019360BCA3FF543F30E509541FFEE49383
:10019100A360010ECF54C025E060A840B8E493A34A
:1001A100FAE493A3F8E493A3C8C582C8CAC583CA75
:1001B100F0A3C8C582C8CAC583CADFE9DEE780BE2D
:0102D4000029
:10002600E709F608DFFA8046E709F208DFFA803EBC
:1000360088828C83E709F0A3DFFA8032E309F608A9
:10004600DFFA8078E309F208DFFA807088828C8311
:10005600E309F0A3DFFA806489828A83E0A3F608C5
:10006600DFFA805889828A83E0A3F208DFFA804C9F
:1000760080D280FA80C680D4806980F28033801076
:1000860080A680EA809A80A880DA80E280CA8033DF
:1000960089828A83ECFAE493A3C8C582C8CCC58357
:1000A600CCF0A3C8C582C8CCC583CCDFE9DEE78027
:1000B6000D89828A83E493A3F608DFF9ECFAA9F0A6
:1000C600EDFB2289828A83ECFAE0A3C8C582C8CCFC
:1000D600C583CCF0A3C8C582C8CCC583CCDFEADE15
:1000E600E880DB89828A83E493A3F208DFF980CC77
:1000F60088F0EF60010E4E60C388F0ED2402B40470
:100106000050B9F582EB2402B4040050AF23234516
:06011600822390007673C5
:10011C00BB010689828A83E0225002E722BBFE02E1
:09012C00E32289828A83E4932214
:00000001FF
