:0300000002000EED
:0C000E00787FE4F6D8FD758110020055E3
:0D00D800080907030B090D0C0E06010800B6
:1000C800758901758ACD758CF8D2AFD2A9D28C22E8
:050003001200C880FEA0
:03000B0002009A56
:0B009A00C0E0C0D075D000C000C0075F
:1000A500758ACD758CF8AF905307F074092508F85B
:0A00B500E642078F90050853080784
:0900BF00D007D000D0D0D0E0320F
:10001A00020003E493A3F8E493A34003F68001F2F9
:10002A0008DFF48029E493A3F85407240CC8C333E7
:10003A00C4540F4420C8834004F456800146F6DFB6
:10004A00E4800B01020408102040809000D8E47E6E
:10005A00019360BCA3FF543F30E509541FFEE493AB
:10006A00A360010ECF54C025E060A840B8E493A372
:10007A00FAE493A3F8E493A3C8C582C8CAC583CA9D
:10008A00F0A3C8C582C8CAC583CADFE9DEE780BE55
:0100E500001A
:00000001FF
