:03000000020026D5
:0C002600787FE4F6D8FD75811202006DB1
:01000900FDF9
:10000E0002110000080907030B090D0C0E0601086A
:01001E0000E1
:0B01D0001200031201A81201BF80FE04
:06000300759850D2AC22FA
:1001A80053890F438920D2AFC28A900009E493FF94
:0701B800F58D8F8BD28E2222
:1001BF005389F0438901758ACD758CF8D2A9D28CF9
:0101CF00220D
:03000B00020107E8
:0B010700C0E0C0D075D000C000C007F1
:10011200758ACD758CF8AF905307F074092508F8ED
:10012200E642078F90D3E5129400E5116480948033
:1001320040020508E51245116003851299E508B4ED
:0D014200080B750800E5121512700215116A
:09014F00D007D000D0D0D0E0327E
:030023000201587F
:10015800C0E0C0F0C0D075D000C000C004C005C069
:1001680006C007309902C299309824C298E599C40C
:10017800540F75F00AA4FFE599540F7C002FFFEF88
:100188007F0025E0FE0C7D681200B28E118F12D020
:1001980007D006D005D004D000D0D0D0F0D0E032BF
:100032000201D0E493A3F8E493A34003F68001F213
:1000420008DFF48029E493A3F85407240CC8C333CF
:10005200C4540F4420C8834004F456800146F6DF9E
:10006200E4800B010204081020408090000EE47E20
:10007200019360BCA3FF543F30E509541FFEE49393
:10008200A360010ECF54C025E060A840B8E493A35A
:10009200FAE493A3F8E493A3C8C582C8CAC583CA85
:1000A200F0A3C8C582C8CAC583CADFE9DEE780BE3D
:01001F0000E0
:1000B200BC000BBE0029EF8DF084FFADF022E4CC32
:1000C200F875F008EF2FFFEE33FEEC33FCEE9DECFB
:1000D200984005FCEE9DFE0FD5F0E9E4CEFD22ED41
:1000E200F8F5F0EE8420D21CFEADF075F008EF2F8B
:1000F200FFED33FD4007985006D5F0F222C398FD7C
:050102000FD5F0EA2218
:00000001FF
