:030000000203A94F
:0C03A900787FE4F6D8FD7581270203F090
:100493000A0DC0F9A4B0999282F88090010C00046F
:1004A3001700000000040800000000061BFFFFFF08
:0304B300FFFFFF49
:1004B7001200031204D2D28DAF0BAE0AAD09AC08FD
:0B04C7007B007A00791B12029B80ED85
:0E029B008F248E238D228C218B258A26892785
:1002A900E47B0AFAF9F8AF241200C4AF03740D2FE6
:1002B900F8E6AB25AA26A927120054E47B0AFAF925
:1002C900F8AF24AE23AD22AC211200C4E47B0AFAB4
:1002D900F9F81200C4AF03740D2FF8E6AB25AA266E
:1002E900A927900001120066E47B64FAF9F8AF24AB
:1002F900AE23AD22AC211200C4E47B0AFAF9F8124C
:1003090000C4AF03740D2FF8E6AB25AA26A92790E0
:100319000002120066E47BE87A03F9F8AF24AE2301
:10032900AD22AC211200C4E47B0AFAF9F81200C428
:10033900AF03740D2FF8E6AB25AA26A92790000371
:10034900120066E47B107A27F9F8AF24AE23AD22B8
:10035900AC211200C4E47B0AFAF9F81200C4AF0315
:10036900740D2FF8E6AB25AA26A9279000041200E0
:10037900667BA07A8679017800AF24AE23AD22ACE2
:10038900211200C4E47B0AFAF9F81200C4AF03741D
:100399000D2FF8E6AB25AA26A927900005020066CD
:05000300D293C294221B
:100435007580FFEF14601C14602414602C14603464
:1004450014603C24057046C292C291C29012000EFF
:10045500F58022C292C291D290900001802AC29268
:10046500D291C290900002801FC292D291D29090F8
:1004750000038014D292C291C2909000048009D2E8
:0E04850092C291D290900005120027F58022BD
:1004D2005389F0438901758CFC758A66D2AFD2A923
:0304E200D28C2297
:03000B0002016788
:10016700C0E0C0F0C083C082C0D075D000C000C05E
:1001770001C002C003C004C005C006C007758CFCDF
:10018700758A66E50CC394065004050C8003750C4C
:10019700007FA07E867D017C00AB0BAA0AA909A877
:1001A70008C31201565008E50C940440028070E41D
:1001B7007F107E27FDFCAB0BAA0AA909A808C3126A
:1001C70001565008E50C940340028053E47FE87E13
:1001D70003FDFCAB0BAA0AA909A808C312015650D4
:1001E70008E50C940240028036E47F64FEFDFCAB18
:1001F7000BAA0AA909A808C31201565008E50C94CE
:10020700014002801AE47F0AFEFDFCAB0BAA0AA993
:1002170009A808C31201565009E50C94004003755C
:100227000C00E47F0AFEFDFCAB1AAA19A918A8174F
:10023700C31201565017E51A2401F51AE43519F5CA
:1002470019E43518F518E43517F5178021751A00E4
:10025700751900751800751700E50B2401F50BE4F7
:10026700350AF50AE43509F509E43508F5087B0090
:100277007A00791BAF0C120435D007D006D005D011
:1002870004D003D002D001D000D0D0D082D083D008
:04029700F0D0E03291
:1003B5000204B7E493A3F8E493A34003F68001F2A3
:1003C50008DFF48029E493A3F85407240CC8C33349
:1003D500C4540F4420C8834004F456800146F6DF18
:1003E500E4800B0102040810204080900493E47E11
:1003F500019360BCA3FF543F30E509541FFEE4930D
:10040500A360010ECF54C025E060A840B8E493A3D3
:10041500FAE493A3F8E493A3C8C582C8CAC583CAFE
:10042500F0A3C8C582C8CAC583CADFE9DEE780BEB6
:0104B6000045
:10000E00BB010689828A83E0225002E722BBFE02F0
:09001E00E32289828A83E4932223
:10002700BB010CE58229F582E5833AF583E022508E
:1000370006E92582F8E622BBFE06E92582F8E222D8
:0D004700E58229F582E5833AF583E49322F2
:10005400BB010689828A83F0225002F722BBFE018B
:02006400F32285
:10006600F8BB010DE58229F582E5833AF583E8F0D0
:10007600225006E92582C8F622BBFE05E92582C87C
:02008600F22264
:1000880075F008758200EF2FFFEE33FECD33CDCC2F
:1000980033CCC58233C5829BED9AEC99E5829840B2
:1000A8000CF582EE9BFEED9AFDEC99FC0FD5F0D68F
:1000B800E4CEFBE4CDFAE4CCF9A88222B800C1B9B9
:1000C8000059BA002DEC8BF084CFCECDFCE5F0CBF7
:1000D800F97818EF2FFFEE33FEED33FDEC33FCEB30
:1000E80033FB10D703994004EB99FB0FD8E5E4F9EB
:1000F800FA227818EF2FFFEE33FEED33FDEC33FCD8
:10010800C933C910D7059BE99A4007EC9BFCE99ACB
:10011800F90FD8E0E4C9FAE4CCFB2275F010EF2F10
:10012800FFEE33FEED33FDCC33CCC833C810D70710
:100138009BEC9AE899400AED9BFDEC9AFCE899F84B
:0E0148000FD5F0DAE4CDFBE4CCFAE4C8F922DE
:10015600EB9FF5F0EA9E42F0E99D42F0E89C45F0FF
:010166002276
:00000001FF
