:030000000204A156
:0C04A100787FE4F6D8FD7581230204E8A2
:1005AC00010C000408000000000617FFFFFFFFFF0E
:0D05BC00FF0A0DC0F9A4B0999282F880905A
:0E01CE008F208E1F8D1E8C1D8B218A2289236F
:1001DC00E47B0AFAF9F8AF2012012BAF03740D2F50
:1001EC00F8E6AB21AA22A92312006CE47B0AFAF9E7
:1001FC00F8AF20AE1FAD1EAC1D12012BE47B0AFA2A
:10020C00F9F812012BAF03740D2FF8E6AB21AA22DB
:10021C00A92390000112007EE47B64FAF9F8AF2068
:10022C00AE1FAD1EAC1D12012BE47B0AFAF9F812BD
:10023C00012BAF03740D2FF8E6AB21AA22A9239052
:10024C00000212007EE47BE87A03F9F8AF20AE1FBF
:10025C00AD1EAC1D12012BE47B0AFAF9F812012B2E
:10026C00AF03740D2FF8E6AB21AA22A9239000034B
:10027C0012007EE47B107A27F9F8AF20AE1FAD1E7A
:10028C00AC1D12012BE47B0AFAF9F812012BAF0317
:10029C00740D2FF8E6AB21AA22A9239000041200BA
:1002AC007E7BA07A8679017800AF20AE1FAD1EACA4
:1002BC001D12012BE47B0AFAF9F812012BAF03741F
:1002CC000D2FF8E6AB21AA22A92390000502007E8F
:0505E100D293C2942238
:10052D007580FFEF14601C14602414602C1460346B
:10053D0014603C24057046C292C291C290120026EE
:10054D00F58022C292C291D290900001802AC2926F
:10055D00D291C290900002801FC292D291D29090FF
:10056D0000038014D292C291C2909000048009D2EF
:0E057D0092C291D29090000512003FF58022AC
:10000E005389F0438901758CFC758A66D2AFD2A9EB
:03001E00D28C225F
:10058B001205E112000E1200031205CAD28DAF0B39
:10059B00AE0AAD09AC087B007A0079171201CE8048
:0105AB00ED62
:03000B000202DC12
:1002DC00C0E0C0F0C083C082C0D075D000C000C0E8
:1002EC0001C002C003C004C005C006C007758CFC69
:1002FC00758A66E50CC394065004050C8003750CD6
:10030C00007FA07E867D017C00AB0BAA0AA909A800
:10031C0008C31201BD5008E50C940440028070E43F
:10032C007F107E27FDFCAB0BAA0AA909A808C312F3
:10033C0001BD5008E50C940340028053E47FE87E35
:10034C0003FDFCAB0BAA0AA909A808C31201BD50F6
:10035C0008E50C940240028036E47F64FEFDFCABA1
:10036C000BAA0AA909A808C31201BD5008E50C94F0
:10037C00014002801AE47F0AFEFDFCAB0BAA0AA91D
:10038C0009A808C31201BD5009E50C94004003757F
:10039C000C007B007A007917AF0C12052DD007D01A
:1003AC0006D005D004D003D002D001D000D0D0D0DC
:0803BC0082D083D0F0D0E032C2
:030023000203C411
:1003C400C0E0C0F0C083C082C0D075D000C000C0FF
:1003D40001C002C003C004C005C006C007309902B2
:1003E400C299209803020486C298E599C3940A50DE
:1003F40034E47F0AFEFDFCAB0BAA0AA909A8081283
:1004040000A0A804A905AA06AB07E599540FFFE4C8
:10041400FCFDFEEB2FF50BEE3AF50AED39F509EC90
:1004240038F508805DE599B40C0E750B00750A006B
:10043400750900750800804AE47F64FEFDFCAB0B7F
:10044400AA0AA909A8081200A0A804A905AA06AB2B
:1004540007E599C4540F75F00AA4FFE4FCFDEB2FE3
:10046400FBEA35F0FAED39F9EC38F8E599540FFF69
:10047400E4FEEB2FF50BEE3AF50AED39F509EC380D
:10048400F508D007D006D005D004D003D002D0019F
:0D049400D000D0D0D082D083D0F0D0E032A4
:01000900FEF8
:06000300759850D2AC22FA
:1005CA0053890F438920D2AFC28A900009E493FF6E
:0705DA00F58D8F8BD28E22FC
:1004AD0002058BE493A3F8E493A34003F68001F2D5
:1004BD0008DFF48029E493A3F85407240CC8C33350
:1004CD00C4540F4420C8834004F456800146F6DF1F
:1004DD00E4800B01020408102040809005ACE47EFE
:1004ED00019360BCA3FF543F30E509541FFEE49314
:1004FD00A360010ECF54C025E060A840B8E493A3DB
:10050D00FAE493A3F8E493A3C8C582C8CAC583CA05
:10051D00F0A3C8C582C8CAC583CADFE9DEE780BEBD
:0105C9000031
:10002600BB010689828A83E0225002E722BBFE02D8
:09003600E32289828A83E493220B
:10003F00BB010CE58229F582E5833AF583E0225076
:10004F0006E92582F8E622BBFE06E92582F8E222C0
:0D005F00E58229F582E5833AF583E49322DA
:10006C00BB010689828A83F0225002F722BBFE0173
:02007C00F3226D
:10007E00F8BB010DE58229F582E5833AF583E8F0B8
:10008E00225006E92582C8F622BBFE05E92582C864
:02009E00F2224C
:1000A000E88FF0A4CC8BF0A42CFCE98EF0A42CFCFF
:1000B0008AF0EDA42CFCEA8EF0A4CDA8F08BF0A47D
:1000C0002DCC3825F0FDE98FF0A42CCD35F0FCEBDC
:1000D0008EF0A4FEA9F0EB8FF0A4CFC5F02ECD39A1
:0F00E000FEE43CFCEAA42DCE35F0FDE43CFC220E
:1000EF0075F008758200EF2FFFEE33FECD33CDCCC8
:1000FF0033CCC58233C5829BED9AEC99E58298404B
:10010F000CF582EE9BFEED9AFDEC99FC0FD5F0D627
:10011F00E4CEFBE4CDFAE4CCF9A88222B800C1B951
:10012F000059BA002DEC8BF084CFCECDFCE5F0CB8F
:10013F00F97818EF2FFFEE33FEED33FDEC33FCEBC8
:10014F0033FB10D703994004EB99FB0FD8E5E4F983
:10015F00FA227818EF2FFFEE33FEED33FDEC33FC70
:10016F00C933C910D7059BE99A4007EC9BFCE99A64
:10017F00F90FD8E0E4C9FAE4CCFB2275F010EF2FA9
:10018F00FFEE33FEED33FDCC33CCC833C810D707A9
:10019F009BEC9AE899400AED9BFDEC9AFCE899F8E4
:0E01AF000FD5F0DAE4CDFBE4CCFAE4C8F92277
:1001BD00EB9FF5F0EA9E42F0E99D42F0E89C45F098
:0101CD00220F
:00000001FF
