:03000000020026D5
:0C002600787FE4F6D8FD75810C02006DB7
:0301D200010C001D
:1001A2008F0B8E0A8D098C08780874FF120005ECFB
:0601B2004D4E4F70F322D8
:0901C300D2A4D2A5D2A6D2A72233
:10013000EF14601014601614601C24037020C2A316
:10014000D2A28004D2A3C2A2D2A1D2A022D2A3D290
:0F015000A2C2A1D2A022D2A3D2A2D2A1C2A02227
:1000B200EF14602614603F1460582403706F20A46C
:1000C200047599312220A5047599322220A604755F
:1000D20099332220A7577599552220A40475993483
:1000E2002220A5047599352220A60475993622206E
:1000F200A73B75994C2220A4047599372220A504A8
:100102007599382220A6047599392220A71F75995E
:10011200442220A4047599302220A5047599512205
:0E01220020A6047599452220A7037599522244
:10015F001201CC12018B1201C3050CE50CC39404E0
:10016F004003E4F50CAF0C120130AF0C1200B27F5C
:0C017F00647E007D007C001201A280DD87
:030023000201B81F
:0B01B800309902C299309802C29832C0
:0101D600FE2A
:0601CC00759850D2AC2230
:10018B0053890F438920D2AFC28A9001D6E493FFE3
:07019B00F58D8F8BD28E223F
:1000320002015FE493A3F8E493A34003F68001F284
:1000420008DFF48029E493A3F85407240CC8C333CF
:10005200C4540F4420C8834004F456800146F6DF9E
:10006200E4800B01020408102040809001D2E47E5B
:10007200019360BCA3FF543F30E509541FFEE49393
:10008200A360010ECF54C025E060A840B8E493A35A
:10009200FAE493A3F8E493A3C8C582C8CAC583CA85
:1000A200F0A3C8C582C8CAC583CADFE9DEE780BE3D
:0101D5000029
:100003007401FF3395E0FEFDFC080808E6CF2FF6E8
:1000130018E6CE3EF618E6CD3DF618E6CC3CF622C1
:00000001FF
