:0300000002019565
:0C019500787FE4F6D8FD75815D0201DC86
:10026D0020400800FF00FF00FF00EF00FF00EF003F
:10027D00C700D700FF00FF00EF00FF00FF00EF00F9
:10028D00C700D700FF00EF00FF00FF00FF00EF00E9
:10029D00C700D700EF00FF00FF00FF00FF00EF00D9
:0802AD00C700D7035B00004805
:10000300C294C293758911758C4CE4F58A758DFC85
:10001300758B66D28CD28E7580FF208F030200B859
:10002300C28F758DFC758B66E559D394074005E443
:10003300F559800205597580FFE559B408005075DC
:1000430090004AF828287302006202006D020078CB
:1000530002008302008E0200990200A40200AFC2D4
:1000630092C291C290854980804BC292C291D29034
:10007300854B808040C292D291C290854D8080355D
:10008300C292D291D290854F80802AD292C291C2DD
:1000930090855180801FD292C291D29085538080E7
:1000A30014D292D291C2908555808009D292D29176
:1000B300D290855780208D0302001DC28D758C4C14
:1000C300E4F58AE55AC394044003E4F55AE558C3BA
:1000D300940A5003020190E55AC454F02408F8E648
:1000E300FF08E6AB5BAA5CA95DCF8FF0120221E5A6
:1000F3005AC454F0240AF8E6FF08E6AB5BAA5CA9ED
:100103005D900002CF8FF0120240E55AC454F024F0
:100113000CF8E6FF08E6900004CF8FF0120240E5EA
:100123005AC454F0240EF8E6FF08E6900006CF8F79
:10013300F0120240E55AC454F02410F8E6FF08E632
:10014300900008CF8FF0120240E55AC454F02412F5
:10015300F8E6FF08E690000ACF8FF0120240E55A56
:10016300C454F02414F8E6FF08E690000CCF8FF097
:10017300120240E55AC454F02416F8E6FF08E6904C
:10018300000ECF8FF0120240055AE4F558055802CD
:02019300001D4D
:1001A100020003E493A3F8E493A34003F68001F271
:1001B10008DFF48029E493A3F85407240CC8C3335F
:1001C100C4540F4420C8834004F456800146F6DF2E
:1001D100E4800B010204081020408090026DE47E4F
:1001E100019360BCA3FF543F30E509541FFEE49323
:1001F100A360010ECF54C025E060A840B8E493A3EA
:10020100FAE493A3F8E493A3C8C582C8CAC583CA14
:10021100F0A3C8C582C8CAC583CADFE9DEE780BECC
:0102B5000048
:10022100BB010A89828A83F0E5F0A3F0225006F728
:0F02310009A7F01922BBFE06F3E5F009F3192225
:10024000F8BB0111E58229F582E5833AF583E8F0F0
:10025000E5F0A3F0225009E92582C8F608A6F022AD
:0D026000BBFE09E92582C8F2E5F008F22294
:00000001FF
