:0300000002000EED
:0C000E00787FE4F6D8FD758108020055EB
:0300DB0001080019
:0B00C500D292D291C290C294D293223A
:0C00B900758901758C4CE4F58AD28C220C
:05000300D2AFD2A922DA
:0B00D0001200C51200031200B980FEF0
:03000B0002009A56
:10009A00C0E0C0D0758A00758C4CE508C39409404D
:0F00AA0007B28075080080020508D0D0D0E03280
:10001A000200D0E493A3F8E493A34003F68001F22C
:10002A0008DFF48029E493A3F85407240CC8C333E7
:10003A00C4540F4420C8834004F456800146F6DFB6
:10004A00E4800B01020408102040809000DBE47E6B
:10005A00019360BCA3FF543F30E509541FFEE493AB
:10006A00A360010ECF54C025E060A840B8E493A372
:10007A00FAE493A3F8E493A3C8C582C8CAC583CA9D
:10008A00F0A3C8C582C8CAC583CADFE9DEE780BE55
:0100DE000021
:00000001FF
