:03000000020026D5
:0C002600787FE4F6D8FD75810D02006DB6
:01002200FDE0
:0A00E30005096162632000010800B6
:08001A001200EE12000380FE4B
:0600EE00759850D2AC220F
:1000030053890F438920D2AFC28A900022E493FF21
:07001300F58D8F8BD28E22C8
:030023000200B226
:0B00B200C0E0C0D075D000C000C00747
:1000BD00309913C29974092508F8E6FF7004F50804
:0D00CD0080048F990508309804C298D299DC
:0900DA00D007D000D0D0D0E032F4
:1000320002001AE493A3F8E493A34003F68001F2CA
:1000420008DFF48029E493A3F85407240CC8C333CF
:10005200C4540F4420C8834004F456800146F6DF9E
:10006200E4800B01020408102040809000E3E47E4B
:10007200019360BCA3FF543F30E509541FFEE49393
:10008200A360010ECF54C025E060A840B8E493A35A
:10009200FAE493A3F8E493A3C8C582C8CAC583CA85
:1000A200F0A3C8C582C8CAC583CADFE9DEE780BE3D
:0100ED000012
:00000001FF
