:030000000201E317
:0C01E300787FE4F6D8FD7581180200F961
:1001D30000FF00FF00FF00EF00FF00EF00C700D7A4
:0B01EF00EF1FAC0670011E4C70F622E2
:1000F90078087C007D007BFF7A0179D37E007F1030
:070109001200D3C294C2935F
:10011000E4F518E518B40800504D900121F828289E
:100120007302013902013D02014102014502014908
:10013000020151020159020161C292800EC29280F5
:1001400012C2928016C292801AD292C291C290803C
:1001500016D292C291D290800ED292D291C2908049
:1001600006D292D291D290E518B40800504790017F
:1001700075F828287302018D02019202019702018D
:100180009C0201A10201A60201AB0201B085098017
:100190008026850B808021850D80801C850F8080C6
:1001A000178511808012851380800D851580800849
:1001B00085178080037580FF7F647E001201EF75D4
:1001C00080FF0518C3E5186480948850030201136A
:0301D00002011019
:10000300E709F608DFFA8046E709F208DFFA803EDF
:1000130088828C83E709F0A3DFFA8032E309F608CC
:10002300DFFA8078E309F208DFFA807088828C8334
:10003300E309F0A3DFFA806489828A83E0A3F608E8
:10004300DFFA805889828A83E0A3F208DFFA804CC2
:1000530080D280FA80C680D4806980F28033801099
:1000630080A680EA809A80A880DA80E280CA803302
:1000730089828A83ECFAE493A3C8C582C8CCC5837A
:10008300CCF0A3C8C582C8CCC583CCDFE9DEE7804A
:100093000D89828A83E493A3F608DFF9ECFAA9F0C9
:1000A300EDFB2289828A83ECFAE0A3C8C582C8CC1F
:1000B300C583CCF0A3C8C582C8CCC583CCDFEADE38
:1000C300E880DB89828A83E493A3F208DFF980CC9A
:1000D30088F0EF60010E4E60C388F0ED2402B40493
:1000E3000050B9F582EB2402B4040050AF2323453A
:0600F3008223900053730C
:00000001FF
