:070003000108FFC180C1816B
:0B00DA001200CD1200E51200F780FEBE
:0700F000758CFC758A652286
:0D00CD007589011200F0D2AFD2A9D28C22A9
:0500F700C2A4D2A32207
:0B00E500C290D291D292D293C294221A
:03000B0002009A56
:09009A00C0E0C0D075D000C00721
:1000A300A20092011200F0E50825E0FFA2A3E433C9
:1000B3004FF5087004C2008002D200200105300011
:0300C30002B28006
:0700C600D007D0D0D0E032DA
:0300000002000EED
:0C000E00787FE4F6D8FD758120020055D3
:10001A000200DAE493A3F8E493A34003F68001F222
:10002A0008DFF48029E493A3F85407240CC8C333E7
:10003A00C4540F4420C8834004F456800146F6DFB6
:10004A00E4800B0102040810204080900003E47E43
:10005A00019360BCA3FF543F30E509541FFEE493AB
:10006A00A360010ECF54C025E060A840B8E493A372
:10007A00FAE493A3F8E493A3C8C582C8CAC583CA9D
:10008A00F0A3C8C582C8CAC583CADFE9DEE780BE55
:01000A0000F5
:00000001FF
