:03000000020003F8
:0C000300787FE4F6D8FD75811702004AF2
:1000CC001008C0F9A4B0999282F880908883C6A1D8
:0200DC00868E0E
:10008F00E4FFFED293C292C291C290C294758901CD
:10009F00758C4CF58AD28C308DFDC28D758C4CE4ED
:1000AF00F58A0FEFC3941440EEE4FF74082EF8E6C0
:0D00BF00F5800EEED3940F40DEE4FE80DAF3
:10000F0002008FE493A3F8E493A34003F68001F278
:10001F0008DFF48029E493A3F85407240CC8C333F2
:10002F00C4540F4420C8834004F456800146F6DFC1
:10003F00E4800B01020408102040809000CCE47E85
:10004F00019360BCA3FF543F30E509541FFEE493B6
:10005F00A360010ECF54C025E060A840B8E493A37D
:10006F00FAE493A3F8E493A3C8C582C8CAC583CAA8
:10007F00F0A3C8C582C8CAC583CADFE9DEE780BE60
:0100DE000021
:00000001FF
