:03000000020003F8
:0C000300787FE4F6D8FD75811602004AF3
:0E010D000C0848656C6C6F20576F726C6400B4
:0E011C001200C87B007A00790812008F80FE66
:0300FB0012012AC5
:0E00FE00C290D291D295AF80C295EF20E7F666
:01010C0022D0
:0B012A00C290C2918F80D295C2952236
:0B013500D290C2918F80D295C295221B
:1000C8001200FE7F381200FB7F0C1200FB7F061225
:0A00D800012A1200FE7F0102012A36
:06008F008B148A1589168E
:10009500E4FEAB14AA15A9161200E260251200FEB3
:1000A500EE4480FF12012A1200FEAB140516E51678
:1000B500AA157002051514F91200E2FF1201350E9A
:0200C50080D0E9
:0100C7002216
:10000F0002011CE493A3F8E493A34003F68001F2EA
:10001F0008DFF48029E493A3F85407240CC8C333F2
:10002F00C4540F4420C8834004F456800146F6DFC1
:10003F00E4800B010204081020408090010DE47E43
:10004F00019360BCA3FF543F30E509541FFEE493B6
:10005F00A360010ECF54C025E060A840B8E493A37D
:10006F00FAE493A3F8E493A3C8C582C8CAC583CAA8
:10007F00F0A3C8C582C8CAC583CADFE9DEE780BE60
:01011B0000E3
:1000E200BB010689828A83E0225002E722BBFE021C
:0900F200E32289828A83E493224F
:00000001FF
