:03000000020003F8
:0C000300787FE4F6D8FD75810802004A01
:03012400010801CE
:1000C4001201191201087FA012008FE5087004C202
:1000D400808002D2801200F31201087FB012008FD8
:0F00E400E5087004C2818002D2811200F380FE11
:0B011900C290D291D292D293C29422E5
:10010800D2B6D2B700000000C2B600000000C2B7E5
:0101180022C4
:10008F007E80EE601B5F7004C2B68002D2B60000A5
:10009F000000D2B700000000C2B7EEC313FE80E22B
:1000AF00D2B600000000D2B7A2B6E433F5080000C4
:0400BF000000C2B7C4
:0100C300221A
:1000F300C2B7C2B600000000D2B700000000D2B6FB
:050103000000000022D5
:10000F000200C4E493A3F8E493A34003F68001F243
:10001F0008DFF48029E493A3F85407240CC8C333F2
:10002F00C4540F4420C8834004F456800146F6DFC1
:10003F00E4800B0102040810204080900124E47E2C
:10004F00019360BCA3FF543F30E509541FFEE493B6
:10005F00A360010ECF54C025E060A840B8E493A37D
:10006F00FAE493A3F8E493A3C8C582C8CAC583CAA8
:10007F00F0A3C8C582C8CAC583CADFE9DEE780BE60
:0101270000D7
:00000001FF
